:030000000208C132
:0C08C100787FE4F6D8FD75811F0209085D
:0C0A11000A0A3F065B4F666D7D07FF6719
:1009D800E4FDFCC3ED9FEE6480F8EC64809850164B
:1009E800758BFD758D4BD28E308FFDC28EC28F0DEB
:0609F800BD00010C80DDD2
:0109FE0022D6
:0609FF00F8E6F5A07F2CD4
:0C0A0500D3EF6480948040031F80F52232
:0A080000E4F5A0F5B0E4F508F509F1
:05080A00E4F514F515F2
:10080F0085081E85091FAE1EAF1F7C007D0A1209C9
:10081F004D8C168D17AE1EAF1F7C007D0A12094D31
:10082F008E1E8F1F7C007D0A12094D8C188D19AEFC
:10083F001EAF1F7C007D0A12094D8E1E8F1F7C007C
:10084F007D0A12094D8C1A8D1BAE1EAF1F7C007DC9
:10085F000A12094D8E1C8F1DC2B3740A2F1209FF85
:10086F00D2B3C2B2740A251B1209FFD2B2C2B1743D
:10087F000A25191209FFD2B1C2B0740A251712093D
:03088F00FFD2B0E5
:100892000515E51570020514C394F4E514648094FB
:0608A20081500302080F63
:1008A8000509E50970020508D39410E508648094E9
:0908B800A7500302080A0208051A
:1008CD00020800E493A3F8E493A34003F68001F239
:1008DD0008DFF48029E493A3F85407240CC8C3332C
:1008ED00C4540F4420C8834004F456800146F6DFFB
:1008FD00E4800B0102040810204080900A11E47E70
:10090D00019360BCA3FF543F30E509541FFEE493EF
:10091D00A360010ECF54C025E060A840B8E493A3B6
:10092D00FAE493A3F8E493A3C8C582C8CAC583CAE1
:10093D00F0A3C8C582C8CAC583CADFE9DEE780BE99
:010A1D0000D8
:10094D00C2D5EC30E709B2D5E4C39DFDE49CFCEEC5
:10095D0030E715B2D5E4C39FFFE49EFE120983C3B1
:10096D00E49DFDE49CFC800312098330D507C3E4AC
:06097D009FFFE49EFE2234
:10098300BC000BBE0029EF8DF084FFADF022E4CC58
:10099300F875F008EF2FFFEE33FEEC33FCEE9DEC21
:1009A300984005FCEE9DFE0FD5F0E9E4CEFD22ED67
:1009B300F8F5F0EE8420D21CFEADF075F008EF2FB1
:1009C300FFED33FD4007985006D5F0F222C398FDA2
:0509D3000FD5F0EA223F
:00000001FF
